:100000000C941E340C944F340C944F340C944F3495
:100010000C944F340D94270C0C944F340C944F34A3
:100020000D94B20B0C944F340C944F340C944F3409
:100030000C944F340C9446FE0D9483430D94F1427E
:100040000C944F340D941D330C944F340C944F3456
:100050000C944F340C944F340C944F340D94F76639
:100060000C944F340C947C7D0C944F340C944F348E
:100070000C944F340C944F340C944F340C944F34F4
:100080000C944F340C944F340C944F340C944F34E4
:100090000C94387D0C944F340C944F340C944F34A2
:1000A0000C944F340C944F340C944F340C944F34C4
:1000B0000C944F340C944F340C944F340C944F34B4
:1000C0000C944F340C944F340C944F340C943AC429
:1000D0000C944F340C944F340C944F340C944F3494
:1000E0000C944F348883918336830583D5827F8631
:1000F000CC83EB848085D685F28529869FCE9FCEE2
:10010000A2CE9FCEA2CEA5CEA8CE89CF20D2F0D1AE
:10011000E5D1DAD1CFD1C4D143D233D29DD16FD181
:1001200053D10702D50139021F02EB015B012B02FB
:100130006501BB015901F7015901F7015901F701A7
:100140005102030271011102A501B90129028B01BB
:1001500015026D022302BD0115028F0185015F01A9
:10016000DB01D3015702A7016F02FD019D01CF0101
:10017000EF01F5018D0189014902930163011B0221
:100180005B02AB010D0255026D011D02F10163021C
:100190005D0267014F02E90155026B0161015101E6
:1001A0000B024D0209025D01E701C1015302130276
:1001B0008701D70169019B0197013302C101CB017E
:1001C00067024F01084AD73B3BCE016E84BCBFFD9E
:1001D000C12F3D6C74319ABD56833DDA3D00C77F17
:1001E00011BED9E4BB4C3E916BAAAABE00000080B0
:1001F0003F05A84CCDB2D44EB93836A9020C50B93F
:10020000918688083CA6AAAA2ABE000000803F0763
:10021000634236B79BD8A71A39685618AEBAAB55A1
:100220008C1D3CB7CC5763BD6DEDFD753EF6177266
:1002300031BF000000803F08000000BE9224491238
:100240003EABAAAA2ABECDCCCC4C3E00000080BE5C
:10025000ABAAAAAA3E00000000BF000000803F0039
:1002600000000000084178D3BB4387D1133D190E2D
:100270003CC3BD4282AD2B3E68EC8276BED98FE195
:10028000A93E4C80EFFFBE01C4FF7F3F000000008D
:1002900000000D94577D0D94846E0D94806F0D9425
:1002A0000F910D9419900D94A9710D94BA1A0D9493
:1002B000AE170D9452690D9455670D9496900D9458
:1002C0008E740D9415900D94E48F0D9477670D94B2
:1002D00003900D94CE900D9411900D94EB8F0D948E
:1002E00093590D94C0730D9460190D9452840D941C
:1002F0005A840D944A850D94F3710D9461690D949F
:10030000986E0D9421030D9446850D947A740D9486
:10031000BA900D9438880D9428740D9421880D940A
:100320005D740D944A840D944C880D9447830D940C
:10033000E7900D9487850D94D8900D94F1870D94D6
:10034000A46A0D9435830D94A26E0D94E3730D94FD
:10035000BC870D942C830D94DA8F0D9452710D94FB
:10036000166A0D94841A0D94897F0D9439730D9437
:1003700071710D94EF730D948D670D9457740D94F6
:100380006C840D9419910D945F690D94F9530D943B
:1003900043170D9405730D94FB900D9462800D949A
:1003A000F7870D94E2800D949E870D9421670D943C
:1003B000C4900D94CD1A0D94A0740D943E830D94A9
:1003C00079160D9435A80D9459710D943B7D0D94BB
:1003D000A0900D940B900D944E670D945C720D944B
:1003E00005880D94F58F0D94C56E0D9413880D94AA
:1003F00054690D94796E0D94AA180D94EB870D94A1
:100400008E6E0D946D730D9458690D9421180D9492
:1004100013670D948C900D9482900D94E08F0D9441
:10042000E01A0D94D1730D94B2900D94AA730D94AB
:100430003A660D9420720D94E78F0D94EF8F0D9412
:100440003C670D9442850D945B740D9498720D94E5
:10045000387E0D94F9730D9495670D948D700D94FD
:1004600060710D94AA1A0D94F1900D94DE590D94BB
:1004700067710D942F670D94251A0D94E7160D944E
:100480005F1C0D9438840D949F170D9442840D9435
:10049000DA530D943E880D94CC720D9487900D9490
:1004A00007900D9456690D94AA900D941E900D948A
:1004B000AC870D942C7E0D94D68F0D94FD8F0D94EA
:1004C000F36D0D9483710D94F98F0D94ED740D946B
:1004D00005910D940B180D94675A0D9449740D9461
:1004E000CE870D9447A96E616E00696E66004E411D
:1004F0004E494E495459494E46CDCCCC3D0AD7239E
:100500003C17B7D13877CC2B329595E6241FB14FE5
:100510000A000020410000C84200401C4620BCBE2A
:100520004CCA1B0E5AAEC59D7400407A10F35A0097
:10053000A0724E18090010A5D4E80000E87648170C
:100540000000E40B54020000CA9A3B000000E1F5F1
:1005500005000080969800000040420F000000A0B7
:100560008601000000102700000000E803000000E2
:10057000006400000000000A00000000000100000C
:100580000000002C76D888DC674F0823DFC1DFAE7F
:1005900059E1B1B796E5E3E453C63AE65199769648
:1005A000E8E6C28426EB898C9B62ED407C6FFCEF11
:1005B000BC9C9F40F2BAA56FA5F490055A2AF75C3F
:1005C000936B6CF9676DC11BFCE0E40D47FEF520F1
:1005D000E6B500D0ED902E030094357705008084B9
:1005E0001E080000204E0A000000C80C33333333CD
:1005F0000F986E12831141EF8D2114893BE6551639
:10060000CFFEE6DB18D1844B381BF77C1D901DA470
:10061000BBE424203284725E228100C9F124ECA163
:10062000E53D276364696E6F70737578585B0025CC
:1006300064206279746573207772697474656E20C2
:10064000746F20454550524F4D20617420616464A1
:100650007265737320307825303478004433202D50
:1006600020526561642F5772697465204545505268
:100670004F4D0A0020436F756E7420583A20005386
:1006800044207072696E74696E67206279746520A7
:10069000004E6F7420696E206661726D206D6F640C
:1006A000652E0041637469766520457874727564BF
:1006B00065723A2000496E76616C696420657874D1
:1006C0007275646572005A204F66667365740055D2
:1006D0006E6B6E6F776E20636F6D6D616E643A2026
:1006E00022004D32303020496E76616C696420659D
:1006F0007874727564657220007A5F6D61783A2053
:10070000007A5F6D696E3A2000795F6D61783A20FA
:1007100000795F6D696E3A2000785F6D61783A20EC
:10072000006F70656E00545249474745524544007A
:10073000785F6D696E3A20005265706F7274696EF1
:100740006720656E6473746F702073746174757361
:100750000053494C454E54004E4F524D414C0025DC
:1007600053204D4F44453A2050657263656E7420A6
:10077000646F6E653A2025643B207072696E742048
:1007800074696D652072656D61696E696E67206957
:100790006E206D696E733A2025640A00456E6420F0
:1007A00066696C65206C69737400426567696E20C8
:1007B00066696C65206C697374000A50494E444147
:1007C0002074656D70657261747572653A20252EAE
:1007D0003166205A20736869667420286D6D293A45
:1007E00020252E3366000A537465703A2025642F45
:1007F000360A000A537465703A2025642F36202883
:10080000736B6970706564290A50494E44412074C5
:10081000656D70657261747572653A202564205A41
:1008200020736869667420286D6D293A300A000AC1
:100830005A45524F3A20252E33660A00737461726E
:10084000742074656D70657261747572653A2025E7
:100850002E31660A0025642020252E32660025539D
:1008600020583A20252E356620593A20252E356607
:10087000205A3A20252E35660A00536C6565702E85
:100880002E2E004E6F7420696E206661726D206D91
:100890006F64652E0025640045303A25642052506F
:1008A0004D0A50524E303A25642052504D0A0025D0
:1008B0006400442D31202D20456E646C65737320D7
:1008C0006C6F6F700A00416476616E6365204B3D0A
:1008D000004B206F7574206F6620616C6C6F7765BC
:1008E000642072616E676521004D323230205325DD
:1008F0006900255346696C616D656E74207365747B
:1009000074696E67733A2044697361626C65640A46
:1009100000255346696C616D656E7420736574744F
:10092000696E67733A0A25532020204D32303020FB
:1009300044252E32660A0025535265747261637431
:100940003A20533D4C656E67746820286D6D2920F0
:10095000463A537065656420286D6D2F6D29205AC5
:100960003A205A4C69667420286D6D290A25532057
:1009700020204D3230372053252E32662046252E3A
:100980003266205A252E32660A25535265636F76E9
:1009900065723A20533D4578747261206C656E67CC
:1009A000746820286D6D2920463A5370656564206F
:1009B000286D6D2F6D290A25532020204D323038A7
:1009C0002053252E32662046252E32660A255341B5
:1009D00075746F2D526574726163743A20533D30A3
:1009E00020746F2064697361626C652C20312074FF
:1009F0006F20696E746572707265742065787472A8
:100A00007564652D6F6E6C79206D6F7665732061EE
:100A100073207265747261637473206F72207265E3
:100A2000636F7665726965730A25532020204D3205
:100A30003039205325640A00255350494420686505
:100A400061746265642073657474696E67733A0AD1
:100A500025532020204D3330342050252E3266205F
:100A600049252E32662044252E32660A0025535031
:100A700049442073657474696E67733A0A2553207C
:100A800020204D3330312050252E32662049252E2E
:100A900032662044252E32660A0025535374657051
:100AA000732070657220756E69743A0A2553202090
:100AB0004D39322058252E32662059252E32662097
:100AC0005A252E32662045252E32660A2553555367
:100AD000746570207265736F6C7574696F6E3A20FF
:100AE0000A2553204D33353020582564205925647C
:100AF000205A2564204525640A25534D6178696D87
:100B0000756D20666565647261746573202D206E55
:100B10006F726D616C20286D6D2F73293A0A255311
:100B200020204D3230332058252E32662059252E74
:100B30003266205A252E32662045252E32660A2539
:100B4000534D6178696D756D206665656472617479
:100B50006573202D20737465616C746820286D6D39
:100B60002F73293A0A255320204D3230332058253F
:100B70002E32662059252E3266205A252E326620C6
:100B800045252E32660A25534D6178696D756D20B5
:100B9000616363656C65726174696F6E202D206E90
:100BA0006F726D616C20286D6D2F7332293A0A25A2
:100BB0005320204D3230312058256C752059256C3A
:100BC00075205A256C752045256C750A25534D6195
:100BD00078696D756D20616363656C6572617469B8
:100BE0006F6E202D20737465616C746820286D6DA4
:100BF0002F7332293A0A255320204D3230312058A4
:100C0000256C752059256C75205A256C7520452555
:100C10006C750A2553416363656C65726174696F15
:100C20006E3A20533D616363656C65726174696FF0
:100C30006E2C20543D72657472616374206163632D
:100C4000656C65726174696F6E0A255320204D32A0
:100C500030342053252E32662054252E32660A2544
:100C600053416476616E6365642076617269616286
:100C70006C65733A20533D4D696E206665656472FC
:100C800061746520286D6D2F73292C20543D4D69AA
:100C90006E2074726176656C20666565647261743D
:100CA0006520286D6D2F73292C20423D6D696E697A
:100CB0006D756D207365676D656E742074696D6503
:100CC00020286D73292C20583D6D6178696D756DF4
:100CD000205859206A65726B20286D6D2F73292C5E
:100CE00020205A3D6D6178696D756D205A206A65C6
:100CF000726B20286D6D2F73292C2020453D6D616E
:100D000078696D756D2045206A65726B20286D6D60
:100D10002F73290A255320204D3230352053252E9C
:100D200032662054252E32662042252E3266205807
:100D3000252E32662059252E3266205A252E3266FF
:100D40002045252E32660A2553486F6D65206F6653
:100D50006673657420286D6D293A0A255320204D4D
:100D60003230362058252E32662059252E32662004
:100D70005A252E32660A004625642025640A004D55
:100D80004D55203C3D2027462564202564270A0038
:100D9000504944204175746F74756E652066696EA4
:100DA0006973686564212050757420746865206CCF
:100DB000617374204B702C204B6920616E64204B52
:100DC0006420636F6E7374616E74732066726F6DEE
:100DD0002061626F766520696E746F20436F6E6666
:100DE000696775726174696F6E2E6800504944209E
:100DF0004175746F74756E65206661696C656421F8
:100E00002074696D656F75740020403A00543A0093
:100E1000423A00504944204175746F74756E6520E4
:100E20006661696C6564212054656D7065726174DA
:100E300075726520746F6F206869676800204B6465
:100E40003A2000204B693A2000204B703A200020C5
:100E5000436C6173736963205049442000205475CA
:100E60003A2000204B753A2000206D61783A20002E
:100E7000206D696E3A200020643A2000206269618A
:100E8000733A200020453A00205A3A0020593A008F
:100E900020453A00205A3A0020593A00583A0000BA
:100EA0005A30005A3100593000593100583000583A
:100EB0003100456E642073746F70732064696167DC
:100EC000002E0044656C6574696F6E206661696C04
:100ED00065642C2046696C653A200046696C652083
:100EE00064656C657465643A000A002F000A004E60
:100EF0006F74205344207072696E74696E6700507D
:100F000072696E7420736176656400534420707258
:100F1000696E7420706175736564004F4B004241C7
:100F2000440052414D426F2046414E200043524101
:100F300053485F43414E43454C0043524153485F41
:100F40005245434F5645520043524153485F524524
:100F5000434F5645520022283229005400447570F0
:100F60006C696361746520542D636F6465206967E3
:100F70006E6F7265642E0A004475706C69636174EB
:100F80006520542D636F64652069676E6F726564B8
:100F90002E0A00496E76616C6964205420636F6488
:100FA000652E00556E6B6E6F776E204D20636F64FB
:100FB000653A202573200A006E6F2076616C6964A3
:100FC00020636F6D6D616E64002C20002C20002C5E
:100FD00020006E2F61002C20002C20002C20006EA1
:100FE0002F61002F00503A005761697420666F72BC
:100FF0002050494E444120746172676574207465C5
:101000006D70657261747572653A004C414E47208F
:1010100053454C20464F5243454400222831290075
:1010200030303030303030302D303030302D3030C6
:1010300030302D303030302D3030303030303030B6
:10104000303030300020555549443A0031002045B9
:10105000585452554445525F434F554E543A0050F0
:1010600072757361206933204D4B335300204D411D
:101070004348494E455F545950453A00312E30009F
:10108000206261736564206F6E204D61726C696EC1
:10109000204649524D574152455F55524C3A68746B
:1010A0007470733A2F2F6769746875622E636F6D61
:1010B0002F707275736133642F50727573612D4692
:1010C00069726D776172652050524F544F434F4C97
:1010D0005F56455253494F4E3A004649524D57418B
:1010E00052455F4E414D453A50727573612D4669C8
:1010F000726D7761726520004D31313320530020CD
:10110000423A0020453A00543A0020413A0020502B
:101110003A002042403A0020403A00202F003A0096
:10112000205400202F0020423A00202F006F6B2017
:10113000543A002569206D696E2C2025692073655D
:101140006300496E76616C6964204D20636F64654D
:101150003A202573200A00556E6B6E6F776E20471C
:1011600020636F64653A202573200A004D6573681B
:1011700020626564206C6576656C696E67206E6FB1
:1011800074206163746976652E000A002020000ACD
:101190004D6561737572656420706F696E74733A22
:1011A000000A5A2073656172636820686569676820
:1011B000743A20002C004E756D20582C593A2000AE
:1011C000206D6963726F6E73004578636573736930
:1011D000766520626564206C6576656C696E672053
:1011E000636F7272656374696F6E3A200042656462
:1011F000206C6576656C696E67206661696C6564F4
:101200002E2053656E736F72207472696767657202
:10121000656420746F6F20686967682E0A004265F4
:1012200064206C6576656C696E67206661696C65C3
:10123000642E2053656E736F7220646973636F6EE2
:101240006E6563746564206F72206361626C6520F3
:1012500062726F6B656E2E0A00473238205730007D
:1012600050494E44412070726F62652063616C6921
:1012700062726174696F6E207374617274004732B8
:1012800038205730004D3234005345545F43484FA7
:10129000505F005345545F535445505F00534554CD
:1012A0005F574156455F00544D435F0043524153E1
:1012B000485F00472D636F646520736C69636564E4
:1012C00020666F72206120646966666572656E745F
:1012D000206C6576656C2E20436F6E74696E756543
:1012E0003F00472D636F646520736C6963656420FC
:1012F000666F72206120646966666572656E74202F
:101300006C6576656C2E20506C6561736520726526
:101310002D736C69636520746865206D6F64656CFE
:1013200020616761696E2E205072696E742063615E
:101330006E63656C6C65642E00472D636F64652079
:10134000736C6963656420666F722061206E6577D7
:101350006572206669726D776172652E20506C65CA
:1013600061736520757064617465207468652066BA
:1013700069726D776172652E205072696E74206398
:10138000616E63656C6C65642E00472D636F6465E8
:1013900020736C6963656420666F722061206E65DE
:1013A000776572206669726D776172652E20436F72
:1013B0006E74696E75653F00472D636F64652073B9
:1013C0006C6963656420666F72206120646966667B
:1013D0006572656E74207072696E746572207479BE
:1013E00070652E20506C656173652072652D736C7D
:1013F00069636520746865206D6F64656C20616742
:1014000061696E2E205072696E742063616E63652F
:101410006C6C65642E00472D636F646520736C6986
:1014200063656420666F7220612064696666657218
:10143000656E74207072696E74657220747970655F
:101440002E20436F6E74696E75653F00472D636F84
:10145000646520736C6963656420666F7220612027
:10146000646966666572656E74207072696E746513
:101470007220747970652E20436F6E74696E756585
:101480003F00472D636F646520736C69636564205A
:10149000666F72206120646966666572656E74208D
:1014A0007072696E74657220747970652E20506C4C
:1014B000656173652072652D736C6963652074685E
:1014C00065206D6F64656C20616761696E2E2050C8
:1014D00072696E742063616E63656C6C65642E0066
:1014E0005072657373206B6E6F6220746F20707220
:1014F0006568656174206E6F7A7A6C6520616E64D0
:1015000020636F6E74696E75652E00506C65617333
:101510006520707265737320746865206B6E6F62EE
:1015200020746F20756E6C6F61642066696C616DEC
:10153000656E740052656D6F7665206F6C64206611
:10154000696C616D656E7420616E64207072657384
:101550007320746865206B6E6F6220746F207374E3
:10156000617274206C6F6164696E67206E657720AC
:1015700066696C616D656E742E00616E64207072B8
:1015800065737320746865206B6E6F6200496E73BB
:101590006572742066696C616D656E7400436F6C72
:1015A0006F72206E6F7420636F7272656374004691
:1015B000696C616D656E74206E6F74206C6F616410
:1015C0006564004368616E67656420636F7272656D
:1015D00063746C793F004C6F6164696E6720636F60
:1015E0006C6F72004368616E676520737563636535
:1015F00073732100506C65617365206F70656E2098
:1016000069646C657220616E642072656D6F7665C9
:101610002066696C616D656E74206D616E75616CBC
:101620006C792E005761732066696C616D656E740C
:1016300020756E6C6F616420737563636573736688
:10164000756C3F00506C65617365207570677261E1
:1016500064652E004E6577206669726D77617265EC
:101660002076657273696F6E20617661696C616264
:101670006C653A0057616974696E6720666F722005
:1016800050494E44412070726F626520636F6F6CE9
:10169000696E670043726173682064657465637482
:1016A00065642E20526573756D65207072696E7465
:1016B0003F00437261736820646574656374656498
:1016C0002E0045787472756465720043686F6F739D
:1016D000652065787472756465723A0043686F6F4F
:1016E00073652066696C616D656E743A004E6F209B
:1016F0006D6F76652E005761697420666F72207574
:101700007365722E2E2E00536F6D652070726F629E
:101710006C656D20656E636F756E74657265642CA3
:10172000205A2D6C6576656C696E6720656E666FF4
:1017300072636564202E2E2E00537461626C6520E6
:10174000616D6269656E742074656D706572617437
:101750007572652032312D323643206973206E65F3
:1017600065646564206120726967696420737461CF
:101770006E642069732072657175697265642E00EC
:10178000506C656173652072756E2058595A2063DC
:10179000616C6962726174696F6E206669727374DC
:1017A0002E0073746172740A006164635F696E690C
:1017B000740A000A204F726967696E616C2050726A
:1017C0007573612069330A2020205072757361207F
:1017D000526573656172636800436F6E74696E75FC
:1017E00065207769746820616E6F74686572206225
:1017F0006F7764656E3F00250020202020202000A8
:101800002020202020200045524153494E4720618E
:101810006C6C206461746100466163746F7279203E
:10182000524553455400466163746F7279205245A6
:1018300053455400202873656E736F7220626F6188
:101840007264207265766973696F6E3A2553290A4E
:101850000044495341424C454400454E41424C45A9
:1018600044004653656E736F7220255300494E54F1
:1018700034004D4B33534D4D553253004E4F4D4B6D
:101880003353002E014D6179203331203230323014
:1018900000436F6D70696C65643A2000286E6F6E4E
:1018A000652C2064656661756C7420636F6E666973
:1018B0006729004D617920333120323032302031B8
:1018C000303A30343A34330020332E392E302D3331
:1018D0003432310A002055706C6F616420696E20CB
:1018E00070726F677265737300205A3A0020593A1C
:1018F0000020583A0043524153485F444554454301
:1019000054454458590043524153485F4445544557
:1019100043544544590043524153485F444554455C
:101920004354454458004D32390045787465726E11
:10193000616C2053504920666C6173680A573235D8
:10194000583230434C206973206E6F742072657377
:101950002D0A706F6E64696E672E204C616E67751C
:101960006167650A73776974636820756E61766173
:10197000696C61626C652E004372617368446574C2
:101980006563742044495341424C454400437261AD
:10199000736844657465637420454E41424C454408
:1019A0002100573235583230434C206E6F7420720C
:1019B0006573706F6E64696E672E0A002020506C2C
:1019C000616E6E65724275666665724279746573A2
:1019D0003A20002046726565204D656D6F72793A38
:1019E0002000207C20417574686F723A2000204CE2
:1019F00061737420557064617465643A20002053EB
:101A00006F66747761726520526573657400205744
:101A100061746368646F6720526573657400204267
:101A2000726F776E206F7574205265736574002035
:101A300045787465726E616C2052657365740050F0
:101A40006F7765725570006572726F722077726978
:101A500074696E6720746F2066696C6500656E64DA
:101A600073746F7073206869743A2000446F6E65F8
:101A700020736176696E672066696C652E006F6BF6
:101A80000020302E33206F72206F6C64657200204E
:101A9000302E34206F72206E65776572004D4B33A7
:101AA00053206669726D7761726520646574656341
:101AB000746564206F6E204D4B33207072696E74B4
:101AC0006572005072757361206933204D4B33533A
:101AD000204F4B2E00426C61636B6F7574206F63F7
:101AE0006375727265642E205265636F766572202D
:101AF0007072696E743F0053656C66746573742010
:101B000077696C6C2062652072756E20746F20633B
:101B1000616C69627261746520616363757261747E
:101B2000652073656E736F726C6573732072656880
:101B30006F6D696E672E0054686572652069732049
:101B40007374696C6C2061206E65656420746F200D
:101B50006D616B65205A2063616C696272617469A2
:101B60006F6E2E20506C6561736520666F6C6C6FB4
:101B70007720746865206D616E75616C2C206368D8
:101B80006170746572204669727374207374657035
:101B9000732C2073656374696F6E2043616C696296
:101BA000726174696F6E20666C6F772E0050726977
:101BB0006E74657220686173206E6F742062656553
:101BC0006E2063616C69627261746564207965740A
:101BD0002E20506C6561736520666F6C6C6F77208A
:101BE000746865206D616E75616C2C20636861702E
:101BF0007465722046697273742073746570732CF7
:101C00002073656374696F6E2043616C69627261F1
:101C100074696F6E20666C6F772E004F6C64207352
:101C2000657474696E677320666F756E642E2044E8
:101C3000656661756C74205049442C204573746549
:101C40007073206574632E2077696C6C2062652048
:101C50007365742E005761726E696E673A20626F09
:101C60007468207072696E74657220747970652072
:101C7000616E64206D6F74686572626F617264205A
:101C800074797065206368616E6765642E005761C2
:101C9000726E696E673A207072696E746572207434
:101CA000797065206368616E6765642E00576172A4
:101CB0006E696E673A206D6F74686572626F6172EB
:101CC000642074797065206368616E6765642E00B6
:101CD00053657474696E67732053746F7265640022
:101CE00053746F7265642073657474696E677320D2
:101CF0007265747269657665640048617264636FC9
:101D00006465642044656661756C74205365747401
:101D1000696E6773204C6F61646564005632000021
:101D20000000C8420000C8420000C84300008C43C5
:101D30000000484300004843000040410000F042DA
:101D4000E8030000E8030000C8000000881300005A
:101D500000409C4400409C44000000000000000043
:101D6000204E00000000204100002041CDCCCC3EA0
:101D70000000904000000000000000000000000093
:101D8000CDCCCC3E3D0A8141FF08433EB099AB43E8
:101D90008F42FC42E65A343F4C62B04500000000DE
:101DA000004040000034420000000000000000003D
:101DB000000041000000E03F0000C8420000C842AF
:101DC000000040410000F042C0030000C0030000DA
:101DD000C80000008813000010101020627573798D
:101DE0003A2070617573656420666F7220696E7049
:101DF000757400627573793A20706175736564203B
:101E0000666F72207573657200627573793A20701F
:101E1000726F63657373696E670000007F430080B3
:101E200054430000524300000000000080C09A9913
:101E3000193E00000000000080C09A99193E000081
:101E4000A0400000A04000000040253364207374CF
:101E500065703D253264206D73636E743D25346476
:101E60000A0000007F43008058439AD95143FFFF86
:101E7000FF67636F64655F4D373031206265676966
:101E80006E0A00252E31305320002563252D313870
:101E90002E3138732563002563252D2E31365320CE
:101EA000002563252E3135533A25732533640045CB
:101EB0007872656D65207370616E206F662074683E
:101EC00065205A2076616C75657321006F6B0A007E
:101ED00073746172740A004D4D5532206669726DDB
:101EE000776172652076657273696F6E20696E76B0
:101EF000616C69642E205265717569726564207623
:101F0000657273696F6E3A206275696C64206E75D4
:101F10006D626572202564206F722068696768654C
:101F2000722E004D4D55203D3E20276F6B270A0035
:101F30004D4D55203D3E20276F6B270A002564003C
:101F40004D4D55203D3E20276F6B272C2072657329
:101F5000756D65207072696E740A004D4D55207262
:101F60006574727920617474656D7074206E722E60
:101F70002025640A004D4D55203D3E20276F6B27DC
:101F80000A00410A004D4D55203C3D202741270ABB
:101F9000004D363030004D363030204155544F0022
:101FA0002568687500410A004D4D55203C3D2027AD
:101FB00041270A0050300A004D25640A004D4D5556
:101FC000203C3D20274D2564270A0057300A004D4C
:101FD0004D55203C3D20275730270A0053330A0037
:101FE0004D4D55203C3D20275333270A0052300ADF
:101FF000004D4D55203C3D20275230270A004B25EF
:10200000640A004D4D55203C3D20274B2564270A8E
:10201000004525640A004D4D55203C3D20274525AF
:1020200064270A0055300A004D4D55203C3D2027BD
:102030005530270A0043300A004D4D55203C3D20C5
:10204000274330270A004C25640A004D4D55203C9B
:102050003D20274C2564270A005425640A004D4D75
:1020600055203C3D2027542564270A004D4D55201E
:102070002D20454E41424C4544002568687500506E
:10208000300A004D310A004D4D55203C3D20274D72
:1020900031270050300A004D4D5520766572736926
:1020A0006F6E2076616C6964004D4D55203D3E2079
:1020B0002725646F6B270A0025750053320A004DEF
:1020C0004D55203C3D2027533227004D4D55203D96
:1020D0003E202725646F6B270A002575004D4D555E
:1020E000206E6F7420726573706F6E64696E672006
:1020F0002D2044495341424C45440053310A004D80
:102100004D55203C3D2027533127004D4D55203D56
:102110003E202773746172742700426564206C65E9
:1021200076656C696E67206661696C65642E205304
:10213000656E736F72206469646E7420747269676F
:102140006765722E20446562726973206F6E206E1F
:102150006F7A7A6C653F2057616974696E67206693
:102160006F722072657365742E00506C65617365C3
:1021700020757064617465206669726D776172653F
:1021800020696E20796F7572204D4D55322E205783
:10219000616974696E6720666F7220726573657419
:1021A0002E0058595A2063616C6962726174696FBC
:1021B0006E20616C6C2072696768742E20536B65A9
:1021C000772077696C6C20626520636F727265633B
:1021D000746564206175746F6D61746963616C6CA2
:1021E000792E0058595A2063616C69627261746972
:1021F0006F6E20616C6C2072696768742E20582F96
:102200005920617865732061726520736C69676815
:10221000746C7920736B657765642E20476F6F64EB
:10222000206A6F62210058595A2063616C6962729A
:102230006174696F6E206F6B2E20582F5920617862
:102240006573206172652070657270656E64696384
:10225000756C61722E20436F6E67726174756C616C
:1022600074696F6E73210058595A2063616C6962FA
:10227000726174696F6E206661696C65642E2052AC
:10228000696768742066726F6E742063616C69623E
:10229000726174696F6E20706F696E74206E6F74F6
:1022A00020726561636861626C652E0058595A201E
:1022B00063616C6962726174696F6E206661696CDA
:1022C00065642E2046726F6E742063616C69627261
:1022D0006174696F6E20706F696E7473206E6F74B5
:1022E00020726561636861626C652E0058595A20DE
:1022F00063616C6962726174696F6E206661696C9A
:1023000065642E20506C6561736520636F6E737514
:102310006C7420746865206D616E75616C2E005858
:10232000595A2063616C6962726174696F6E2063CF
:102330006F6D70726F6D697365642E205269676886
:10234000742066726F6E742063616C69627261746E
:10235000696F6E20706F696E74206E6F7420726585
:1023600061636861626C652E0058595A2063616C24
:102370006962726174696F6E20636F6D70726F6DE8
:10238000697365642E2046726F6E742063616C6998
:1023900062726174696F6E20706F696E7473206E03
:1023A0006F7420726561636861626C652E005859B4
:1023B0005A2063616C6962726174696F6E20666134
:1023C000696C65642E204265642063616C69627289
:1023D0006174696F6E20706F696E7420776173200D
:1023E0006E6F7420666F756E642E00506C6561733D
:1023F0006520706C61636520737465656C2073681B
:10240000656574206F6E20686561746265642E0076
:1024100044697374616E6365206265747765656E87
:1024200020746970206F6620746865206E6F7A7AF8
:102430006C6520616E642074686520626564207339
:1024400075726661636520686173206E6F742062C7
:1024500065656E20736574207965742E20506C65F7
:1024600061736520666F6C6C6F7720746865206D92
:10247000616E75616C2C20636861707465722046B2
:10248000697273742073746570732C207365637440
:10249000696F6E204669727374206C617965722071
:1024A00063616C6962726174696F6E2E00506C6159
:1024B00063652061207368656574206F66207061B4
:1024C00070657220756E64657220746865206E6F29
:1024D0007A7A6C6520647572696E6720746865200D
:1024E00063616C6962726174696F6E206F662066E9
:1024F00069727374203420706F696E74732E204972
:102500006620746865206E6F7A7A6C6520636174EA
:1025100063686573207468652070617065722C2033
:10252000706F776572206F666620746865207072C0
:10253000696E74657220696D6D6564696174656C3E
:10254000792E00506C656173652072656D6F7665DC
:1025500020737465656C2073686565742066726F9E
:102560006D20686561746265642E00497320737420
:1025700065656C207368656574206F6E20686561A1
:10258000746265643F00206F662034005365617299
:102590006368696E67206265642063616C6962725A
:1025A0006174696F6E20706F696E7400206F6620B1
:1025B00039004D6561737572696E67207265666575
:1025C00072656E636520686569676874206F662050
:1025D00063616C6962726174696F6E20706F696E9D
:1025E0007400506C6561736520636C65616E207466
:1025F0006865206E6F7A7A6C6520666F7220636101
:102600006C6962726174696F6E2E20436C69636BD2
:10261000207768656E20646F6E652E004175746F5B
:1026200020686F6D650078797A63616C5F6D6561B4
:1026300073737572655F656E7465720A0078797A76
:1026400063616C5F73706972616C382063783D25DB
:10265000642063793D2564207A303D256420647AC6
:102660003D2564207261646975733D256420616451
:102670003D25640A0078797A63616C5F73656172E5
:1026800063685A206E6F207369676E616C0A2078E8
:102690003D256C6420793D256C64207A3D256C6471
:1026A0000A00204F4E2D5349474E414C2061742063
:1026B000783D256420793D2564207A3D256420619C
:1026C000643D25640A0078797A63616C5F736561A3
:1026D0007263685A20783D256C6420793D256C64CE
:1026E000207A3D256C640A000A0025303278007893
:1026F000797A63616C5F7363616E5F706978656C32
:10270000735F33327833322063783D2564206379F8
:102710003D2564206D696E5F7A3D2564206D61788A
:102720005F7A3D25640A00202532642025640A0072
:102730000A002530327800206D696E3D2564206DD9
:1027400061783D2564206469663D25640A006D61F9
:10275000785F633D253264206D61785F6C3D256450
:102760000A006D61785F633D2564206D61785F725A
:102770003D2564206D61785F6D617463683D2564FB
:102780000A0020783D256420793D2564207A3D2586
:10279000640A00207061747465726E20666F756ED5
:1027A000642061742025642025640A000000F00084
:1027B000F801FC03FE07FE07FE07FE07FC03F80115
:1027C000F000000073697A656F6628746F74616C3D
:1027D000293D25640A0073697A656F6628626C6F0B
:1027E000636B5F627566666572293D25640A0078D1
:1027F000797A63616C5F6D656173737572655F6C27
:10280000656176650A00706F696E743D2564207895
:102810003D256420793D2564207A3D25640A0058D1
:10282000025802584D584DB004F055F055B0047898
:10283000797A63616C5F66696E645F6265645F6923
:102840006E64756374696F6E5F73656E736F725FCC
:10285000706F696E745F787920783D256C6420799B
:102860003D256C64207A3D256C640A00203C2000E4
:102870005741524E494E473A2046726F6E7420704F
:102880006F696E74206E6F74207265616368616237
:102890006C652E205920636F6F7264696E61746578
:1028A0003A0000000040410000C04000005C4300CE
:1028B00000C04000005C430000464300004041006F
:1028C000004643497465726174696F6E3A20004333
:1028D000616C6962726174696F6E206661696C65B2
:1028E000642120436865636B2074686520617865A6
:1028F0007320616E642072756E20616761696E2E4F
:1029000000773235783230636C5F63666D0A00772A
:102910003235783230636C5F656E7465720A002000
:10292000746F6F206C6F6E67206578747275736951
:102930006F6E2070726576656E7465640020636FDB
:102940006C6420657874727573696F6E207072653F
:1029500076656E74656400726573756C742076615B
:102960006C75653A2025640A0020693D2532642093
:10297000636E743D2532642076616C3D2532640AB5
:1029800000636C7573746572733A0A0020693D25A3
:10299000326420737465703D2532640A00736F726F
:1029A0007465642073616D706C65733A0A005553E9
:1029B000415254322072782046756C6C2121210AD4
:1029C00000252D3773003A200025642F3600252D71
:1029D00032305300202020202020202020202020C2
:1029E0002020202020202000203A2000202020200D
:1029F00020202020202020202020202020202020D7
:102A000000252D323073002020202020202020207F
:102A1000202020200025730025632533642F2564A2
:102A20002563005A25362E32662563005A20202061
:102A30002D2D2D200025632533642525002D2D2DDA
:102A4000002533686864002533532533732525003A
:102A50005553420020202000205344002025753E7D
:102A6000257500203F3E257500204625750020462F
:102A70003F0020463020200025632D2D3A2D2D20AB
:102A800020002563253375682025632563002563B1
:102A9000253032753A25303275256325630050495B
:102AA0004E44412048656174696E670043616C69FA
:102AB00062726174696F6E20646F6E650043616C51
:102AC0006962726174696E67205A004265642064AD
:102AD0006F6E65004265642048656174696E6700C9
:102AE00048656174696E6720646F6E652E00486585
:102AF0006174696E670047312058352E30204534A7
:102B00002E302046313030302E30004731205A30C0
:102B10002E32302046313030302E300047312058B0
:102B200035352E30204532352046313430302E3088
:102B300000473120592D322E302046313030302E92
:102B40003000473120583234302E30204532352E77
:102B500030202046323230302E3000473932204586
:102B6000302E30004731205A302E3320463130305D
:102B7000302E30004731205835352E302045382E44
:102B8000302046323030302E300047312058352E3C
:102B900030204533322E302046313830302E300050
:102BA0004731205835352E30204533322E302046DF
:102BB000313037332E30004731204634303030004A
:102BC0004D323034205331303030004731205A35C7
:102BD0002046373230302E30303000473120452DFE
:102BE000312E35303030302046323130302E3030DA
:102BF000303030004D383300473930004732310033
:102C00004739322045302E300047312058353020AA
:102C10005935352045332E3632373733004731208A
:102C200058323030205935352045302E343933383C
:102C3000360047312058323030205937352045335F
:102C40002E36323737330047312058353020593748
:102C5000352045302E343933383600473120583549
:102C600030205939352045332E3632373733004737
:102C7000312058323030205939352045302E343902
:102C80003338360047312058323030205931313511
:102C90002045332E36323737330047312058353010
:102CA00020593131352045302E34393338360047FC
:102CB000312058353020593133352045332E3632C6
:102CC00037373300473120583230302059313335CF
:102CD0002045302E363631373400473120583230D7
:102CE0003020593135352045322E363237373300D2
:102CF00047312058313030205931353520453200A8
:102D000047312058373520593135352045322E3559
:102D1000004731204631303830004731205A302EBC
:102D20003135302046373230302E303030004731A8
:102D3000205835302059313535004739322045305B
:102D40002E3000473238004D313039004D313930A6
:102D5000004D31303700542564004731205A302E61
:102D6000342046313030302E3000473120592D3359
:102D70002E302046313030302E30004D3833004771
:102D80003120583130302E30204531322E3520461A
:102D9000313030302E30004731205836302E302040
:102DA00045392E302046313030302E3000A02B8A6D
:102DB0002B742B642B5B2B422B312B1C2B0B2BF6F8
:102DC0002A002CFC2BF82BF42BDB2BCB2BC02BB7A6
:102DD0002B473120583530205933352045252D2EAD
:102DE0003366002E2D1A2D112D002DF02CDA2CC457
:102DF0002CAF2C9A2C842C6F2C5B2C472C322C1D46
:102E00002C092C496E76616C69642050494420631A
:102E1000616C2E20726573756C74732E204E6F7406
:102E20002073746F72656420746F20454550524F53
:102E30004D2E004D353030004731205A3135204677
:102E40003135303000473931004731205835302096
:102E5000593139302045302046373030300047393D
:102E600030004D3834004D37303220430047312098
:102E70005831302059313830204634303030004716
:102E800031205A31302046313330302E303030004E
:102E90004D313430205330004D3130342053300028
:102EA000473120452D302E303735303020463231F5
:102EB00030302E3030303030004D31303700255337
:102EC0000A20252D31362E313653252D33640A2024
:102ED000252D31362E313653252D33640025530AE6
:102EE00020252D31362E313653252D33640A2025E9
:102EF0002D31362E313653252D33640A20252D31C0
:102F0000362E313653252D33640025530A20252DC6
:102F100031362E313653252D33640A20252D313696
:102F20002E313653252D33640A20252D372E375365
:102F30005820252D336420205920252D336400206E
:102F4000257325336401200A000A204952203A20C3
:102F500020202020202025332E3166560020505777
:102F6000523A20202020202025342E3166560A2077
:102F70004245443A20202020202025342E31665618
:102F80000025530A20582025640A20592025640072
:102F9000466C6173684169722049502041646472D3
:102FA0003A004D4D5532202020202020204E2F4128
:102FB0000025642E25642E25642D256400204657A7
:102FC0003A0020756E6B6E6F776E20737461746556
:102FD0000046696C2E2073656E736F7220762E3AF0
:102FE000004D617920333120323032300045334496
:102FF000763666756C6C0045494E53795F313061A9
:1030000000315F37356D6D5F4D4B33002D2D2D2D0C
:103010002D2D2D2D2D2D2D2D00207265706F2055FD
:103020006E6B6E6F776E0020332E392E302D333459
:103030003231004669726D776172653A0025642EFF
:1030400025642E25642E2564004D373032004D371F
:103050003031004D373032004D373031004D313195
:1030600037204669727374206C61796572206361E0
:103070006C2E005049442063616C2E2066696E6995
:1030800073686564005049442063616C2E202020E1
:103090002020202020202020005072696E74207093
:1030A0006175736564005072696E742046414E000C
:1030B0004E6F7A7A6C652046414E00546F74616C95
:1030C000004C617374207072696E74004D4D552010
:1030D0006C6F6164206661696C73004D4D552066AC
:1030E00061696C73004C617374207072696E742036
:1030F0006661696C75726573004D4D5520706F7710
:103100006572206661696C73004D4D55206C6F616E
:1031100064206661696C73004D4D55206661696C71
:103120007300546F74616C206661696C75726573AD
:103130000043726173680046696C616D2E20727580
:103140006E6F75747300506F776572206661696C7D
:103150007572657300546F74616C206661696C757B
:103160007265730043726173680046696C616D2E0D
:103170002072756E6F75747300506F77657220667C
:1031800061696C75726573004C617374207072694B
:103190006E74206661696C7572657300546F74613A
:1031A0006C004C617374207072696E740050494EEB
:1031B000444100416D6269656E740042656C742023
:1031C00073746174757300566F6C74616765730016
:1031D00054656D7065726174757265730042656CDB
:1031E00074207374617475730053656E736F72200D
:1031F000696E666F00457874727564657220696ED9
:10320000666F0058595A2063616C2E2064657461A2
:10321000696C7300756E6B6E6F776E004D4D553235
:1032200020636F6E6E656374656400446174653A13
:1032300000686F77746F2E707275736133642E63DC
:103240006F6D00666F72756D2E7072757361336489
:103250002E636F6D00707275736133642E636F6DD2
:1032600000746F20756E6C6F61642066696C616DAF
:10327000656E7400746F206C6F61642066696C61A8
:103280006D656E7400507265737320746865206B91
:103290006E6F62003E43616E63656C0050726568DC
:1032A000656174696E6720746F2063757400507275
:1032B0006568656174696E6720746F20656A65630F
:1032C000740050726568656174696E6720746F2060
:1032D000756E6C6F61640050726568656174696ECB
:1032E0006720746F206C6F6164002F2F20616374FE
:1032F000696F6E3A706175736564002573202534BB
:10330000642052504D0A2573202534642052504DBC
:103310000A005365742074656D706572617475720E
:10332000653A0054656D70657261747572652063ED
:10333000616C6962726174696F6E206661696C6547
:10334000640054656D7065726174757265206361A7
:103350006C6962726174696F6E2069732066696E50
:10336000697368656420616E642061637469766561
:103370002E2054656D702E2063616C6962726174D9
:10338000696F6E2063616E2062652064697361629B
:103390006C656420696E206D656E7520536574746C
:1033A000696E67732D3E54656D702E2063616C2EBF
:1033B0000049523A0046494E44413A0050494E4471
:1033C000413A0053656E736F7220737461746500C7
:1033D00020003E003E0020003E003E0054656D701F
:1033E000657261747572652063616C696272617483
:1033F000696F6E206661696C65642E20436F6E7420
:10340000696E756520776974682070726573736979
:103410006E6720746865206B6E6F622E0054656D58
:1034200070657261747572652063616C6962726146
:1034300074696F6E20646F6E652E20436F6E7469C1
:103440006E75652077697468207072657373696E34
:103450006720746865206B6E6F622E00202030003C
:1034600020203100506C656173652070756C6C2094
:103470006F75742066696C616D656E7420696D6D21
:103480006564696174656C7900556E6C6F6164691F
:103490006E672066696C616D656E74005265737548
:1034A0006D696E67207072696E7400526573657421
:1034B0000052656E616D65004669727374206C61BF
:1034C0007965722063616C2E0053656C65637400CE
:1034D000537465656C207368656574730053686523
:1034E000657400537570706F7274004661696C206A
:1034F0007374617473204D4D55004661696C20737F
:1035000074617473005374617469737469637320B4
:10351000200043616C6962726174696F6E0041756D
:10352000746F4C6F61642066696C616D656E7400C8
:103530004375742066696C616D656E7400456A65DB
:1035400063742066696C616D656E7400556E6C6F96
:1035500061642066696C616D656E74004C6F6164B6
:1035600020746F206E6F7A7A6C65004C6F616420F6
:1035700066696C616D656E74004E6F205344206304
:10358000617264005072696E742066726F6D2053B0
:103590004400526573756D65207072696E740050D9
:1035A00061757365207072696E7400526573756D14
:1035B00065207072696E7400507265686561740090
:1035C00054756E65004C6976652061646A75737424
:1035D000205A00496E666F2073637265656E0046FF
:1035E000696E697368696E67206D6F76656D656E6B
:1035F0007473004272696768746E65737300417317
:10360000736973740053696C656E74004F6E636503
:10361000004C6F756400536F756E64004D4D5520FE
:103620004D6F6465004372617368206465742E0099
:10363000537465616C7468004E6F726D616C004606
:10364000616E7320636865636B005061757365001C
:10365000436F6E742E00465320416374696F6E0091
:1036600046696C2E2073656E736F72004368616EDD
:1036700067652066696C616D656E7400466C6F7776
:10368000005370656564004E2F41004D61676E65A3
:10369000747320636F6D702E004F6666004F6E006E
:1036A0005A2D70726F6265206E722E004D657368C0
:1036B0000054696D656F75740042726967687400C3
:1036C0004D6F6465004175746F0044696D004C6511
:1036D00076656C2044696D6D6564004C6576656C3B
:1036E000204272696768740046616E207370656578
:1036F0006400426564004E6F7A7A6C6500536574AD
:1037000074696E6773005072696E742061626F72C3
:10371000746564004572723A205052494E542046F6
:10372000414E204552524F52004572723A20455840
:1037300054522E2046414E204552524F52002F2FB8
:1037400020616374696F6E3A726573756D656400AC
:103750002F2F20616374696F6E3A63616E63656CCD
:1037600000252D392E39535B002563252D31382E48
:103770003138732563004661726D206E756D626528
:1037800072004D3630300022206661696C65643A03
:10379000204275666665722066756C6C2100220099
:1037A000256920686F757273202569206D696E75B3
:1037B0007465730054494D454F55543A004D3131AD
:1037C000300046756C6C20525820427566666572F2
:1037D00000656E717565696E67202200446F6E65C5
:1037E000207072696E74696E672066696C65004D41
:1037F0003131322063616C6C65642E20456D6572D9
:1038000067656E63792053746F702E005072696E15
:103810007465722073746F707065642064756520C0
:10382000746F206572726F72732E204669782074EF
:103830006865206572726F7220616E6420757365B1
:10384000204D39393920746F207265737461727438
:103850002E202854656D70657261747572652069DB
:10386000732072657365742E20536574206974200B
:1038700061667465722072657374617274696E67D3
:1038800029004E6F204C696E65204E756D62657221
:10389000207769746820636865636B73756D2C208D
:1038A0004C617374204C696E653A20004E6F204362
:1038B0006865636B73756D2077697468206C696ED9
:1038C00065206E756D6265722C204C617374204C9E
:1038D000696E653A2000636865636B73756D206D72
:1038E00069736D617463682C204C617374204C693A
:1038F0006E653A20004C696E65204E756D6265728A
:10390000206973206E6F74204C617374204C696E53
:1039100065204E756D6265722B312C204C6173747D
:10392000204C696E653A200053544F505045442E48
:103930002000746D63323133305F676F746F5F7373
:10394000746570202564202564202564202564206A
:103950000A004E6F203078464620726563656976AE
:1039600065640053656E64696E6720307846460072
:103970001F1F1F1F1F1F1F1F2E002E004E6F77209F
:1039800066726573682066696C653A20004E6F77D1
:1039900020646F696E672066696C653A200022209A
:1039A000706F73002220706172656E743A2200534A
:1039B0005542524F5554494E452043414C4C20747A
:1039C00061726765743A22002E0043616E6E6F74F7
:1039D00020656E746572207375626469723A2000A6
:1039E00053442063617264206F6B006F70656E5288
:1039F0006F6F74206661696C656400766F6C756DBD
:103A0000652E696E6974206661696C656400534453
:103A100020696E6974206661696C00577269746907
:103A20006E6720746F2066696C653A200046696C89
:103A3000652073656C6563746564002053697A65FD
:103A40003A200046696C65206F70656E65643A20A7
:103A500000747279696E6720746F2063616C6C20EA
:103A60007375622D67636F64652066696C6573208A
:103A70007769746820746F6F206D616E79206C6552
:103A800076656C732E006F70656E206661696C657B
:103A9000642C2046696C653A2000536F7274696E1D
:103AA000672066696C657300536F6D652066696C8D
:103AB00065732077696C6C206E6F7420626520736B
:103AC0006F727465642E204D61782E204E6F2E200B
:103AD0006F662066696C657320696E203120666FA1
:103AE0006C64657220666F7220736F7274696E67A2
:103AF000206973203130302E005072696E74206658
:103B0000616E3A0045787472756465722066616E04
:103B10003A0043616C6962726174696E6720686F14
:103B20006D6500416C6C20636F7272656374202058
:103B30002020202000436865636B696E67207365F1
:103B40006E736F72732000436865636B696E6720E4
:103B5000686F74656E64202000436865636B696EEE
:103B60006720626564202020202000436865636B25
:103B7000696E67205A206178697320200043686568
:103B8000636B696E67205920617869732020004358
:103B90006865636B696E67205820617869732020BF
:103BA00000436865636B696E6720656E6473746F4C
:103BB0007073004572726F72202D20737461746986
:103BC00063206D656D6F7279206861732062656531
:103BD0006E206F7665727772697474656E004361EA
:103BE00072642072656D6F766564005072696E74E0
:103BF0006572206E6F7A7A6C65206469616D657498
:103C0000657220646966666572732066726F6D20E6
:103C100074686520472D636F64652E20506C656164
:103C2000736520636865636B207468652076616CDA
:103C3000756520696E2073657474696E67732E20D4
:103C40005072696E742063616E63656C6C65642E7E
:103C5000005072696E746572206E6F7A7A6C65209E
:103C60006469616D65746572206469666665727306
:103C70002066726F6D2074686520472D636F6465E0
:103C80002E20436F6E74696E75653F002D2D2D2DAE
:103C90002D2D2D2D2D2D2D2D2D2D2D2D2D2D2D2D54
:103CA000000000000000110A0450525553413344F3
:103CB0004657002079303D25640A002078303D25A4
:103CC000640A004F4B0A004552524F522061643D36
:103CD00025640A002020207A303D25640A00207ADD
:103CE000303D25640A002079303D25640A002078A3
:103CF000303D25640A0078797A63616C5F66696E8D
:103D0000645F706F696E745F63656E746572320AAA
:103D10000020573A0020453A00543A005A206C6976
:103D200076652061646A757374206F7574206F66A0
:103D30002072616E67652E2053657474696E67200A
:103D4000746F20302E20436C69636B20746F206386
:103D50006F6E74696E75652E005A206C69766520E9
:103D600061646A757374206F7574206F6620726168
:103D70006E67652E2053657474696E6720746F20BA
:103D8000300020423A0020453A00543A00494E544F
:103D900034007265636F7665725F6D616368696E2A
:103DA000655F73746174655F61667465725F706F7F
:103DB0007765725F70616E69632C20696E697469E2
:103DC000616C200050525553412075766C6F00474E
:103DD00034205330004D32362053256C75004D3160
:103DE00030362053004D32323020532564004731A5
:103DF00020462564004D38320047393220450047BF
:103E000031204525302E336620463237303000478A
:103E100031205A2566005052555341204D424C20C6
:103E200056310047312058256620592566204633F3
:103E300030303000506F736974696F6E2072656145
:103E4000642066726F6D20656570726F6D3A004D0B
:103E50003233202573002E67636F002C2066656562
:103E6000646D756C7469706C793A0046656564724E
:103E70006174653A0047312045252D302E33662088
:103E80004632373030004731204535204631323018
:103E9000004D3833004D31303920532564004D3109
:103EA000393020532564004D3130342053256400CF
:103EB00047323820582059004731205A252E336682
:103EC0002046383030004731205A252D302E3366B9
:103ED0002046252D302E33660047312045252D30D4
:103EE0002E3366204632373030004D383300504F85
:103EF0005745522050414E49432044455445435470
:103F000045440055564C4F202D20656E6420256495
:103F10000A0055564C4F5F54494E59202D20656E6E
:103F2000642025640A00776F726C6420636F6F727F
:103F300064696E617465733A2028252E33662C20DF
:103F4000252E33662C20252E3366290A00437572F0
:103F500072656E7420706F73205A5F415849533AEE
:103F6000252E33660A43757272656E7420706F7306
:103F700020455F415849533A252E33660A00416671
:103F80007465722077616974696E6720666F72204C
:103F900074656D703A0A43757272656E7420706F45
:103FA0007320585F415849533A252E33660A4375AA
:103FB0007272656E7420706F7320595F4158495357
:103FC0003A252E33660A005265636F766572696E14
:103FD00067207072696E74202020200053706F6F0C
:103FE0006C4A6F696E00437574746572004669723D
:103FF0006D77617265004D6F64656C005374726912
:104000006374005761726E00485720536574757071
:1040100000485720536574757000436865636B737F
:10402000004E6F7A7A6C6520642E00537465656C5F
:1040300020736865657473004E6F6E6500416C7027
:1040400068616265740054696D6500536F72740035
:10405000466C617368416972005344206361726405
:104060000052506920706F72740054656D702E207C
:1040700063616C2E004C696E2E20636F72726563F3
:1040800074696F6E004D65736820626564206C65AD
:1040900076656C696E6700485720536574757000CB
:1040A00046616E7320636865636B00462E20617500
:1040B000746F6C6F61640044697361626C65207336
:1040C00074657070657273004D6F766520617869F4
:1040D000730054656D706572617475726500546526
:1040E0006D702E2063616C6962726174696F6E001D
:1040F00052657365742058595A2063616C69627205
:104100002E005049442063616C6962726174696F6A
:104110006E00426564206C6576656C20636F727218
:10412000656374004D65736820426564204C657654
:10413000656C696E670043616C69627261746520C9
:104140005A0043616C6962726174652058595A0063
:1041500053656C6674657374202020202020202015
:10416000200042656C742074657374202020202028
:104170002020200057697A617264004C6F616420CE
:10418000616C6C00456A6563742066696C616D657D
:104190006E74004375742066696C616D656E7400A1
:1041A0004673656E736F7220446574656374696FDE
:1041B0006E0044697361626C65206661726D206D8A
:1041C0006F6465004661726D206E756D6265720088
:1041D0004D3834004D3434004732382057004739C9
:1041E000390044697361626C65206661726D206D8F
:1041F0006F64653F004D3234004D3233202573002B
:104200006175746F25692E670022206661696C658F
:10421000643A204275666665722066756C6C210092
:10422000456E717565696E6720746F2074686520CE
:1042300066726F6E743A2022004572726F723A0095
:104240002200456E717565696E6720746F20746811
:10425000652066726F6E743A2022006563686F3A5B
:104260000001021020200808102040102040800289
:1042700001020108040201010204081020408080AC
:104280004020100804020180040201804020100830
:104290000402010804020101020408102040800108
:1042A00002040810204080100804088010204004F8
:1042B0004080102040048000002200250028002BB0
:1042C000002E003100340002010000050108010B3E
:1042D0000105050505070508080808020202020A8B
:1042E0000A08080404040401010101010101010399
:1042F00003030303030303040707070C0C0C0C0C54
:104300000C0C0C0202020206060606060606060B46
:104310000B0B0B0B0B0B0B07070A0A0A0A0A0A0501
:104320000505040404080802454550524F4D204538
:1043300072726F72004D494E54454D5020424544B3
:10434000206669786564004D494E54454D502048BB
:104350004F54454E4420666978656400506C656131
:10436000736520776169740000002110422063307A
:104370008440A550C660E770088129914AA16BB1BD
:104380008CC1ADD1CEE1EFF1311210027332522265
:10439000B5529442F772D662399318837BB35AA30D
:1043A000BDD39CC3FFF3DEE3622443342004011435
:1043B000E664C774A44485546AA54BB5288509955D
:1043C000EEE5CFF5ACC58DD5533672261116300605
:1043D000D776F6669556B4465BB77AA719973887AD
:1043E000DFF7FEE79DD7BCC7C448E5588668A778C5
:1043F0004008611802282338CCC9EDD98EE9AFF9FD
:10440000488969990AA92BB9F55AD44AB77A966AA4
:10441000711A500A333A122AFDDBDCCBBFFB9EEB4C
:10442000799B588B3BBB1AABA66C877CE44CC55C74
:10443000222C033C600C411CAEED8FFDECCDCDDD9C
:104440002AAD0BBD688D499D977EB66ED55EF44E44
:10445000133E322E511E700E9FFFBEEFDDDFFCCFEC
:104460001BBF3AAF599F788F8891A981CAB1EBA140
:104470000CD12DC14EF16FE18010A100C230E320BC
:104480000450254046706760B9839893FBA3DAB364
:104490003DC31CD37FE35EF3B1029012F322D2320C
:1044A0003542145277625672EAB5CBA5A895898534
:1044B0006EF54FE52CD50DC5E234C324A01481045C
:1044C0006674476424540544DBA7FAB79987B89704
:1044D0005FE77EF71DC73CD7D326F2369106B016AC
:1044E00057667676154634564CD96DC90EF92FE9C4
:1044F000C899E9898AB9ABA94458654806782768FC
:10450000C018E1088238A3287DCB5CDB3FEB1EFBA3
:10451000F98BD89BBBAB9ABB754A545A376A167A4B
:10452000F10AD01AB32A923A2EFD0FED6CDD4DCD73
:10453000AABD8BADE89DC98D267C076C645C454C9B
:10454000A23C832CE01CC10C1FEF3EFF5DCF7CDF43
:104550009BAFBABFD98FF89F176E367E554E745EEB
:10456000932EB23ED10EF01E7C3C3E3F2F2A225CA1
:104570000024F4D43050C38E20C2A24017828B7026
:1045800011127A910D816CD90AA861E108C75866A9
:1045900007615143061E4B5D05C145A7041A411131
:1045A00004093D9803713931034036DB02653391CC
:1045B00002D4305402802E1D02632CEE01752AC5F0
:1045C00001B028A001102781018F2564012B244B05
:1045D00001E0223401AC211F018D200D01801FFC60
:1045E00000841EED00971DDF00B81CD200E61BC63C
:1045F00000201BBC00641AB200B219A8000A19A05E
:10460000006A189900D117910040178B00B51684E5
:104610000031167E00B31579003A157300C7146F88
:104620000058146A00EE1366008813630025135EB9
:1046300000C7125B006C12570015125400C11151D3
:104640000070114F0021114B00D61049008D10470A
:10465000004610440002104200C00F4000800F3E90
:1046600000420F3C00060F3B00CB0E3800930E3784
:10467000005C0E3500270E3400F30D3200C10D3101
:1046800000900D3000600D2E00320D2D00050D2C18
:1046900000D90C2B00AE0C2900850C29005C0C27DE
:1046A00000350C27000E0C2600E80B2400C40B2458
:1046B00000A00B23007D0B23005A0B2100390B2196
:1046C00000180B2000F80A1F00D90A1E00BB0A1EA2
:1046D000009D0A1D00800A1D00630A1C00470A1B7A
:1046E000002C0A1B00110A1A00F7091A00DD09192B
:1046F00000C4091900AB091900920917007B0918B9
:1047000000630917004C0916003609160020091627
:10471000000A091500F5081500E0081400CC08147B
:1047200000B8081400A4081400900813007D0812B3
:10473000006B0813005808120046081200340811D4
:1047400000230811001208110001081100F00710E1
:1047500000E0071000D0071000C0071000B0070FDE
:1047600000A107100091070E0083070F0074070FC8
:104770000065070E0057070E0049070E003B070DA6
:10478000002E070E0020070D0013070D0006070D71
:1047900000F9060C00ED060D00E0060C00D4060C36
:1047A00000C8060C00BC060C00B0060C00A4060BEA
:1047B0000099060C008D060B0082060B0077060B95
:1047C000006C060B0061060A0057060B004C060A37
:1047D0000042060A0038060A002E060A0024060ACD
:1047E000001A060A001006090007060A00FD05095E
:1047F00000F4050900EB050900E2050900D90509E7
:1048000000D0050900C7050900BE050900B5050867
:1048100000AD050800A50509009C050800940508E1
:10482000008C050800840508007C05080074050854
:10483000006C050700650508005D050700560508C2
:10484000004E05070047050700400508003805072A
:1048500000310507002A050700230507001C05068F
:1048600000160507000F05070008050600020507EA
:1048700000FB040600F5040700EE040600E8040649
:1048800000E2040700DB040600D5040600CF04069E
:1048900000C9040600C3040600BD040600B70406F0
:1048A00000B1040500AC040600A6040600A004053F
:1048B000009B04060095040500900406008A040588
:1048C0000085040500800406007A040500750405CF
:1048D00000700405006B0405006604050061040512
:1048E000005C04050057040500520405004D040552
:1048F0000048040500430405003E0404003A040592
:104900000035040500300404002C040500270404CD
:1049100000230405001E0404001A04040016040504
:1049200000110404000D040400090405000404043B
:104930000000040400FC030400F8030400F4030472
:1049400000F0030400EC030400E8030400E40304A3
:1049500000E0030400DC030400D8030400D40304D3
:1049600000D0030400CC030400C8030300C5030304
:104970000024F404D9201BC40C5C0E9804C4095F05
:104980000265077101F405F900FB04B300480487D0
:1049900000C10369005803550003034500BE023AF5
:1049A000008402310053022A00290225000402205B
:1049B00000E4011C00C8011900AF011700980114A0
:1049C0000084011300710110006101100051010EFB
:1049D0000043010D0036010B002B010B0020010BE1
:1049E00000150109000C01090003010800FB000883
:1049F00000F3000800EB000700E4000600DE0006FC
:104A000000D8000600D2000600CC000500C7000553
:104A100000C2000500BD000400B9000400B5000498
:104A200000B1000400AD000400A9000400A50003CB
:104A300000A20003009F0004009B000300980003F5
:104A4000009500020093000300900003008D000217
:104A5000008B00030088000200860002008400032F
:104A600000810002007F0002007D0002007B000246
:104A70000079000200770001007600020074000255
:104A80000072000100710002006F0002006D000161
:104A9000006C0002006A000100690002006700016A
:104AA0000066000100650001006400020062000170
:104AB0000061000100600001005F0002005D000174
:104AC000005C0001005B0001005A00010059000178
:104AD0000058000100570001005600010055000178
:104AE0000054000100530000005300010052000177
:104AF0000051000100500001004F0001004E000075
:104B0000004E0001004D0001004C0001004B000070
:104B1000004B0001004A000100490001004800006C
:104B20000048000100470001004600000046000167
:104B30000045000000450001004400010043000062
:104B4000004300010042000000420001004100005B
:104B50000041000100400001003F0000003F000153
:104B6000003E0000003E0001003D0000003D00014D
:104B7000003C0000003C0000003C0001003B000045
:104B8000003B0001003A0000003A0001003900003B
:104B90000039000100380000003800000038000132
:104BA000003700000037000100360000003600002A
:104BB000003600010035000000350000003500011E
:104BC0000034000000340000003400010033000015
:104BD000003300000033000100320000003200000A
:104BE00000320001003100000031000000310001FE
:104BF000003000000030000000300001002F0000F5
:104C0000002F0000002F0000002F0001002E0000E8
:104C1000002E0000002E0001002D0000002D0000DD
:104C2000002D0000002D0001002C0000002C0000D1
:104C3000002C0000002C0001002B0000002B0000C5
:104C4000002B0000002B0001002A0000002A0000B9
:104C5000002A0000002A00010029000000290000AD
:104C600000290000002900000029000100280000A0
:104C70000028000000280000002800000028000193
:104C80000027000000270000002700000027000088
:104C9000002700010026000000260000002600007A
:104CA000002600000026000100250000002500006D
:104CB000002500000025000000250000002500015F
:104CC0000024000000240000002400000024000054
:104CD0000024000100230000002300000023000046
:104CE0000023000000230000002300000023000137
:104CF000002200000022000000220000002200002C
:104D0000002200000022000100210000002100001C
:104D1000002100000021000000210000002100000F
:104D20000021000100200000002000000020000001
:104D300000200000002000000020000000200000F3
:104D400000200001001F0000001F0000001F0000E5
:104D5000001F0000001F0000001F0000001F0001D6
:104D6000001E0000001E0000001E0000001E0000CB
:104D70000020484F54454E4420544845524D414C24
:104D80002052554E41574159002048454154424513
:104D90004420544845524D414C2052554E415741B4
:104DA0005900544845524D414C2052554E415741AF
:104DB000590042454420544845524D414C205255DB
:104DC0004E415741590020544845524D414C2052C4
:104DD000554E41574159202820505245484541548D
:104DE00020484F54454E44290020544845524D41D7
:104DF0004C2052554E415741592028205052454889
:104E000045415420484541544245442900505245AB
:104E100048454154204552524F520042454420508B
:104E2000524548454154204552524F5200506C65FE
:104E30006173652072657374617274004572723AB1
:104E4000204D494E54454D50003A204578747275B6
:104E5000646572207377697463686564206F666641
:104E60002E204D494E54454D502074726967676538
:104E70007265642021004572723A204D494E5445B6
:104E80004D50204245440054656D706572617475E3
:104E9000726520686561746564206265642073775B
:104EA000697463686564206F66662E204D494E54B0
:104EB000454D5020747269676765726564202100F2
:104EC000746D63323133305F686F6D655F656E742A
:104ED000657228617865735F6D61736B3D3078250D
:104EE000303278290A00746D63323133305F686F75
:104EF0006D655F6578697420746D63323133305F3E
:104F000073675F686F6D696E675F617865735F6D0A
:104F100061736B3D3078253032780A00544D432060
:104F2000445249564552204F56455254454D500023
:104F30001000C90210012C0140012201700118016A
:104F4000B0010E01F00104015002FA00B002F000BD
:104F50003003E600D003DC009004D2007005C800E6
:104F6000A006BE000008B400B009AA00D00BA00043
:104F7000600E960060118C000015820020197800E8
:104F8000C01D6E00A0226400B0275A00902C500073
:104F900000314600E0343C0010383200903A2800DE
:104FA000603C1E00A03D1400803E0A00203F00002F
:104FB00045787472756465722066616E20737065E1
:104FC0006564206973206C6F776572207468616E08
:104FD000206578706563746564005072696E742032
:104FE00066616E207370656564206973206C6F77ED
:104FF0006572207468616E2065787065637465649D
:10500000004572723A204D415854454D50003A20A7
:105010004578747275646572207377697463686526
:1050200064206F66662E204D415854454D502074C3
:1050300072696767657265642021004572723A2063
:105040004D415854454D50204245440054656D70C3
:10505000657261747572652068656174656420624B
:105060006564207377697463686564206F66662E73
:10507000204D415854454D502074726967676572E0
:105080006564202100202D20496E76616C696420C2
:105090006578747275646572206E756D62657220D4
:1050A000210070012C0190012701B0012201C001F3
:1050B0001D01F00118011002130130020E016002FF
:1050C000090190020401C002FF000003FA0040033E
:1050D000F5008003F000D003EB002004E60070042C
:1050E000E100E004DC004005D700C005D200400626
:1050F000CD00D006C8008007C3003008BE00F0080D
:10510000B900C009B400B00AAF00B00BAA00D00CBF
:10511000A500000EA000500F9B00C010960050127A
:10512000910000148C00C0158700B0178200B019E0
:105130007D00D01B7800001E730040206E0090227E
:105140006900F024640040275F0090295A00E02B9A
:105150005500102E500020304B0010324600E03336
:10516000410090353C001037370070383200A039CC
:105170002D00B03A2800A03B2300603C1E00103DEB
:105180001900903D1400103E0F00703E0A00C03E12
:105190000500003F000090137D00B0157800F01767
:1051A0007300601A6E00F01C6900A01F640050229A
:1051B0005F0020255A00E0275500902A5000202D3E
:1051C0004B00A02F4600F031410010343C00F03578
:1051D0003700A037320020392D00603A2800703B9C
:1051E0002300603C1E00203D1900C03D1400403EDD
:1051F0000F00A03E0A00F03E0500403F0000703F57
:10520000FBFF903FF6FFB03FF1FFC03FECFFD03F08
:10521000E7FFE03FE2FFF03FDDFFF03FD8FF6572C0
:10522000726F723A20756E6B6E6F776E206D6F764F
:10523000650A006E6F206D6F76650A00542D636FEE
:1052400064650A00756E6C6F61640A006C6F61645E
:105250000A006D6D755F6765745F726573706F6E60
:105260007365202D20626567696E206D6F76653AE3
:1052700020006D6D755F6765745F726573706F6E2A
:10528000736528292072657475726E696E673A209D
:1052900025640A00556E6C6F6164696E67206669EB
:1052A0006E697368656420320A00556E6C6F6164C4
:1052B00020320A00556E6C6F6164696E6720666902
:1052C0006E697368656420310A00556E6C6F6164A5
:1052D00020310A004D4D5520737461727473207231
:1052E0006573706F6E64696E670A004D4D55206E70
:1052F0006F7420726573706F6E64696E670A004622
:10530000696C616D656E74206F7574206F662072B4
:10531000616E6765202564200A000000803F5555B6
:1053200085410000803F0000C84100000040555505
:1053300005420000C03F0000484200002040555593
:105340008542000070C1ABAAA642000060C1000007
:10535000A0410000C0C00000204100002041ABAAD5
:105360003A41000020C15555D540000048C255556E
:1053700005424D373031204534004D37303120451E
:1053800033004D373031204532004D373031204524
:1053900031004D3730312045300046696C616D6514
:1053A0006E74206E72206F7574206F662072616E4D
:1053B00067652100206661696C65642E0020737545
:1053C000636365656465642E004D4D552063616EB1
:1053D0005F6C6F61643A004164646974696F6E6107
:1053E0006C206C6F616420617474656D7074206EE4
:1053F000722E2025640A004D4D55204F4B2E205211
:105400006573756D696E672E2E2E004D4D55204FBC
:105410004B2E20526573756D696E6720706F7369CE
:1054200074696F6E2E2E2E004D4D55204F4B2E2041
:10543000526573756D696E672074656D7065726114
:10544000747572652E2E2E0046697820746865206A
:10545000697373756520616E64207468656E207071
:105460007265737320627574746F6E206F6E204D59
:105470004D5520756E69742E0050726573732074DB
:105480006865206B6E6F6220746F20726573756D36
:1054900065206E6F7A7A6C652074656D70657261D7
:1054A000747572652E004D4D55206E6565647320D0
:1054B0007573657220617474656E74696F6E2E0009
:1054C00043757474696E672066696C616D656E748E
:1054D00000506C656173652072656D6F766520663E
:1054E000696C616D656E7420616E64207468656EB0
:1054F00020707265737320746865206B6E6F622E06
:1055000000456A656374696E672066696C616D65E4
:105510006E74004D4D55206C6F6164206661696C3E
:10552000656420202020200025632533642F256416
:10553000256300526573656E640025533A20256C1F
:10554000640A25530A00496E616374697669747947
:105550002053687574646F776E004B494C4C45441A
:105560002E20005072696E7465722068616C7465DB
:10557000642E206B696C6C28292063616C6C6564F7
:1055800021004B494C4C3A2025640A004D323231FF
:1055900020496E76616C6964206578747275646503
:1055A0007220004D32313820496E76616C6964207A
:1055B000657874727564657220004D313039204908
:1055C0006E76616C696420657874727564657220AA
:1055D000004D31303520496E76616C696420657804
:1055E00074727564657220004D31303420496E76D6
:1055F000616C696420657874727564657220004D11
:10560000363030006673656E736F725F75706461FB
:105610007465202D204D3630300A004952207365C4
:105620006E736F72206E6F7420726573706F6E642C
:10563000696E672028256429210A0048656174691C
:105640006E672064697361626C656420627920739F
:1056500061666574792074696D65722E0046532009
:1056600076302E34206F72206E6577657200437538
:1056700073746F6D0054657874757200536D6F6F3D
:1056800074680047312059252D2E32662045252D7E
:105690002E3366004731205825642059252D2E329F
:1056A000662045252D2E3366006673656E736F7216
:1056B0005F636865636B706F696E745F7072696E4B
:1056C000740A006673656E736F722076302E342014
:1056D000696E206661756C742072616E6765203436
:1056E0002E362D3556202D20756E636F6E6E6563D8
:1056F0007465640A006673656E736F7220696E204C
:10570000666F7262696464656E2072616E6765209F
:10571000312E352D3356202D20626164206C657644
:1057200065720A00312E3000312E3500554E4B4E39
:105730004F574E004C413130433A204C696E656101
:105740007220416476616E6365206D6F64653A20F6
:10575000004C413130433A2041646A75737465648A
:1057600020452D4A65726B3A2000000E1315110E6C
:1057700000000004120912040000001C1F11111F78
:1057800000000006191803130C00040E1F041C006F
:105790000000040A0A0A0A11110E001F1511151F34
:1057A0000000000103161C0800000000110A04118B
:1057B0000A040C12120C000000002563252D31385C
:1057C0002E3138532563005B25735D2563005B250F
:1057D000535D2563002563252D31382E3138530064
:1057E00053746F70207072696E740046696C652026
:1057F000696E636F6D706C6574652E20436F6E7497
:10580000696E756520616E797761793F00426163E9
:105810006B004D61696E00436865636B696E67205C
:10582000592061786973202000436865636B696E55
:105830006720582061786973202000496E73657273
:1058400074207468652066696C616D656E742028CB
:10585000646F206E6F74206C6F61642069742920FE
:10586000696E746F207468652065787472756465FC
:105870007220616E64207468656E20707265737347
:1058800020746865206B6E6F622E005665726966C3
:1058900069636174696F6E206661696C65642C2050
:1058A00072656D6F7665207468652066696C616DE0
:1058B000656E7420616E642074727920616761691D
:1058C0006E2E0053656E736F72207665726966691D
:1058D00065642C2072656D6F76652074686520663E
:1058E000696C616D656E74206E6F772E00506C650B
:1058F00061736520756E6C6F6164207468652066E5
:10590000696C616D656E742066697273742C2074A5
:1059100068656E20726570656174207468697320B3
:10592000616374696F6E2E0049732066696C616DE6
:10593000656E74206C6F616465643F004D323400A5
:105940004D323320257300052E2E00257500593A5F
:10595000202575202D3E202E2E2E00257500583A2C
:10596000202575202D3E202E2E2E0046696C616D5F
:10597000656E742073656E736F7220626F617264FE
:10598000206368616E67652064657465637465642F
:105990003A207265766973696F6E25530A004D650A
:1059A0006173757265642066696C616D656E7420E3
:1059B00073656E736F72206C6F77206C6576656CA3
:1059C0003A2025342E3266560A004D656173757291
:1059D00065642066696C616D656E742073656E73B5
:1059E0006F722068696768206C6576656C3A20255F
:1059F000342E3266560A00457874727564657200FA
:105A00004D6F7665205A004D6F76652059004D6FB9
:105A1000766520580043726173682064657465631D
:105A200074696F6E2063616E0A6265207475726EB0
:105A30006564206F6E206F6E6C7920696E0A4E6F00
:105A4000726D616C206D6F6465005741524E494E16
:105A5000473A0A43726173682064657465637469C8
:105A60006F6E0A64697361626C656420696E0A53C3
:105A70007465616C7468206D6F6465004175746F46
:105A80006C6F6164696E672066696C616D656E74C8
:105A900020617661696C61626C65206F6E6C792043
:105AA0007768656E2066696C616D656E74207365DC
:105AB0006E736F72206973207475726E6564206FE7
:105AC0006E2E2E2E004552524F523A2046696C617E
:105AD0006D656E742073656E736F72206973206ECE
